{
  "_format": "hh-sol-artifact-1",
  "contractName": "SimpleVoting",
  "sourceName": "contracts/SimpleVoting.sol",
  "abi": [
    {
      "inputs": [],
      "name": "HandlesAlreadySavedForRequestID",
      "type": "error"
    },
    {
      "inputs": [],
      "name": "InvalidKMSSignatures",
      "type": "error"
    },
    {
      "inputs": [],
      "name": "NoHandleFoundForRequestID",
      "type": "error"
    },
    {
      "anonymous": false,
      "inputs": [
        {
          "indexed": true,
          "internalType": "uint256",
          "name": "requestID",
          "type": "uint256"
        }
      ],
      "name": "DecryptionFulfilled",
      "type": "event"
    },
    {
      "anonymous": false,
      "inputs": [
        {
          "indexed": true,
          "internalType": "uint256",
          "name": "sessionId",
          "type": "uint256"
        },
        {
          "indexed": true,
          "internalType": "address",
          "name": "creator",
          "type": "address"
        },
        {
          "indexed": false,
          "internalType": "uint256",
          "name": "endTime",
          "type": "uint256"
        }
      ],
      "name": "SessionCreated",
      "type": "event"
    },
    {
      "anonymous": false,
      "inputs": [
        {
          "indexed": true,
          "internalType": "uint256",
          "name": "sessionId",
          "type": "uint256"
        },
        {
          "indexed": false,
          "internalType": "uint8",
          "name": "yesVotes",
          "type": "uint8"
        },
        {
          "indexed": false,
          "internalType": "uint8",
          "name": "noVotes",
          "type": "uint8"
        }
      ],
      "name": "SessionResolved",
      "type": "event"
    },
    {
      "anonymous": false,
      "inputs": [
        {
          "indexed": true,
          "internalType": "uint256",
          "name": "sessionId",
          "type": "uint256"
        },
        {
          "indexed": false,
          "internalType": "uint256",
          "name": "requestId",
          "type": "uint256"
        }
      ],
      "name": "TallyRevealRequested",
      "type": "event"
    },
    {
      "anonymous": false,
      "inputs": [
        {
          "indexed": true,
          "internalType": "uint256",
          "name": "sessionId",
          "type": "uint256"
        },
        {
          "indexed": true,
          "internalType": "address",
          "name": "voter",
          "type": "address"
        }
      ],
      "name": "VoteCast",
      "type": "event"
    },
    {
      "inputs": [
        {
          "internalType": "uint256",
          "name": "durationSeconds",
          "type": "uint256"
        }
      ],
      "name": "createSession",
      "outputs": [],
      "stateMutability": "nonpayable",
      "type": "function"
    },
    {
      "inputs": [
        {
          "internalType": "uint256",
          "name": "sessionId",
          "type": "uint256"
        }
      ],
      "name": "getSession",
      "outputs": [
        {
          "internalType": "address",
          "name": "creator",
          "type": "address"
        },
        {
          "internalType": "uint256",
          "name": "endTime",
          "type": "uint256"
        },
        {
          "internalType": "bool",
          "name": "resolved",
          "type": "bool"
        },
        {
          "internalType": "uint8",
          "name": "yesVotes",
          "type": "uint8"
        },
        {
          "internalType": "uint8",
          "name": "noVotes",
          "type": "uint8"
        }
      ],
      "stateMutability": "view",
      "type": "function"
    },
    {
      "inputs": [],
      "name": "getSessionCount",
      "outputs": [
        {
          "internalType": "uint256",
          "name": "",
          "type": "uint256"
        }
      ],
      "stateMutability": "view",
      "type": "function"
    },
    {
      "inputs": [
        {
          "internalType": "uint256",
          "name": "",
          "type": "uint256"
        },
        {
          "internalType": "address",
          "name": "",
          "type": "address"
        }
      ],
      "name": "hasVoted",
      "outputs": [
        {
          "internalType": "bool",
          "name": "",
          "type": "bool"
        }
      ],
      "stateMutability": "view",
      "type": "function"
    },
    {
      "inputs": [],
      "name": "protocolId",
      "outputs": [
        {
          "internalType": "uint256",
          "name": "",
          "type": "uint256"
        }
      ],
      "stateMutability": "pure",
      "type": "function"
    },
    {
      "inputs": [
        {
          "internalType": "uint256",
          "name": "sessionId",
          "type": "uint256"
        }
      ],
      "name": "requestTallyReveal",
      "outputs": [],
      "stateMutability": "nonpayable",
      "type": "function"
    },
    {
      "inputs": [
        {
          "internalType": "uint256",
          "name": "requestId",
          "type": "uint256"
        },
        {
          "internalType": "bytes",
          "name": "cleartexts",
          "type": "bytes"
        },
        {
          "internalType": "bytes",
          "name": "decryptionProof",
          "type": "bytes"
        }
      ],
      "name": "resolveTallyCallback",
      "outputs": [],
      "stateMutability": "nonpayable",
      "type": "function"
    },
    {
      "inputs": [
        {
          "internalType": "uint256",
          "name": "",
          "type": "uint256"
        }
      ],
      "name": "sessions",
      "outputs": [
        {
          "internalType": "address",
          "name": "creator",
          "type": "address"
        },
        {
          "internalType": "uint256",
          "name": "endTime",
          "type": "uint256"
        },
        {
          "internalType": "euint8",
          "name": "yesVotes",
          "type": "bytes32"
        },
        {
          "internalType": "euint8",
          "name": "noVotes",
          "type": "bytes32"
        },
        {
          "internalType": "bool",
          "name": "resolved",
          "type": "bool"
        },
        {
          "internalType": "uint8",
          "name": "revealedYes",
          "type": "uint8"
        },
        {
          "internalType": "uint8",
          "name": "revealedNo",
          "type": "uint8"
        },
        {
          "internalType": "uint256",
          "name": "decryptionRequestId",
          "type": "uint256"
        }
      ],
      "stateMutability": "view",
      "type": "function"
    },
    {
      "inputs": [
        {
          "internalType": "uint256",
          "name": "sessionId",
          "type": "uint256"
        },
        {
          "internalType": "externalEuint8",
          "name": "encryptedVote",
          "type": "bytes32"
        },
        {
          "internalType": "bytes",
          "name": "proof",
          "type": "bytes"
        }
      ],
      "name": "vote",
      "outputs": [],
      "stateMutability": "nonpayable",
      "type": "function"
    }
  ],
  "bytecode": "0x608060405234801561000f575f80fd5b5061018a6100ae604080516080810182525f80825260208201819052918101829052606081019190915250604080516080810182527350157cffd6bbfa2dece204a89ec419c23ef5755d815273cd3ab3bd6bcc0c0bf3e27912a92043e817b1cf69602082015273a02cda4ca3a71d7c46997716f4283aa851c2881291810191909152731364cbbf2cdf5032c47d8226a6f6fbd2afcdacac606082015290565b80517f9e7b61f58c47dc699ac88507c4f5bb9f121c03808c5676a8078fe583e464970080546001600160a01b03199081166001600160a01b039384161790915560208301517f9e7b61f58c47dc699ac88507c4f5bb9f121c03808c5676a8078fe583e46497018054831691841691909117905560408301517f9e7b61f58c47dc699ac88507c4f5bb9f121c03808c5676a8078fe583e46497028054831691841691909117905560608301517f9e7b61f58c47dc699ac88507c4f5bb9f121c03808c5676a8078fe583e46497038054909216921691909117905550565b6118fe806101975f395ff3fe608060405234801561000f575f80fd5b506004361061009f575f3560e01c80636e6734bf11610072578063da1f12ab11610058578063da1f12ab146101cc578063f0c42e0f146101d4578063f847cdde146101e7575f80fd5b80636e6734bf1461015b57806383c4b7a31461016c575f80fd5b8063402ff0db146100a357806343859632146100f65780634ba39f42146101335780635eff1bb814610148575b5f80fd5b6100b66100b13660046114b4565b6101fa565b604080516001600160a01b03909616865260208601949094529115159284019290925260ff918216606084015216608082015260a0015b60405180910390f35b6101236101043660046114cb565b600160209081525f928352604080842090915290825290205460ff1681565b60405190151581526020016100ed565b6101466101413660046114b4565b6102d6565b005b610146610156366004611504565b61050e565b5f545b6040519081526020016100ed565b61017f61017a3660046114b4565b610755565b604080516001600160a01b03909916895260208901979097529587019490945260608601929092521515608085015260ff90811660a08501521660c083015260e0820152610100016100ed565b61271161015e565b6101466101e236600461161a565b6107bb565b6101466101f53660046114b4565b610898565b5f805f805f808054905086106102495760405162461bcd60e51b815260206004820152600f60248201526e24b73b30b634b21039b2b9b9b4b7b760891b60448201526064015b60405180910390fd5b5f80878154811061025c5761025c611682565b5f91825260209091206006909102018054600182015460048301549293506001600160a01b039091169160ff1680610294575f6102a2565b6004840154610100900460ff165b600485015460ff166102b4575f6102c3565b600485015462010000900460ff165b939b929a50909850965090945092505050565b5f5481106103185760405162461bcd60e51b815260206004820152600f60248201526e24b73b30b634b21039b2b9b9b4b7b760891b6044820152606401610240565b5f80828154811061032b5761032b611682565b905f5260205f2090600602019050806001015442101561038d5760405162461bcd60e51b815260206004820152601060248201527f566f74696e67206e6f7420656e646564000000000000000000000000000000006044820152606401610240565b600481015460ff16156103e25760405162461bcd60e51b815260206004820152601060248201527f416c7265616479207265736f6c766564000000000000000000000000000000006044820152606401610240565b80546001600160a01b0316331461043b5760405162461bcd60e51b815260206004820152601f60248201527f4f6e6c792063726561746f722063616e20726571756573742072657665616c006044820152606401610240565b6040805160028082526060820183525f926020830190803683375050506002830154909150815f8151811061047257610472611682565b602090810291909101015260038201548160018151811061049557610495611682565b60209081029190910101525f6104b28263f0c42e0f60e01b610b0e565b600584018190555f81815260026020526040908190208690555190915084907f3b6723f18ed1ba6e6d5ef6c5dde279317eb439c0b060dfc62f2a5ec7209b07c7906105009084815260200190565b60405180910390a250505050565b5f5484106105505760405162461bcd60e51b815260206004820152600f60248201526e24b73b30b634b21039b2b9b9b4b7b760891b6044820152606401610240565b5f80858154811061056357610563611682565b905f5260205f2090600602019050806001015442106105c45760405162461bcd60e51b815260206004820152600c60248201527f566f74696e6720656e64656400000000000000000000000000000000000000006044820152606401610240565b5f85815260016020908152604080832033845290915290205460ff161561062d5760405162461bcd60e51b815260206004820152600d60248201527f416c726561647920766f746564000000000000000000000000000000000000006044820152606401610240565b5f61066d8585858080601f0160208091040260200160405190810160405280939291908181526020018383808284375f92019190915250610b2192505050565b90505f61067a6001610b34565b90505f6106865f610b34565b90505f6106936001610b34565b90506106be85600201546106b96106aa8787610b43565b846106b45f610b34565b610b71565b610b85565b600286015560038501546106d9906106b96106aa8786610b43565b600386015560028501546106ec90610bb3565b506106fa8560030154610bb3565b505f898152600160208181526040808420338086529252808420805460ff1916909317909255905190918b917ff1003b73c437642c0460aee9cd9628b0b8c447b66e6c7c905531b9c644214a119190a3505050505050505050565b5f8181548110610763575f80fd5b5f9182526020909120600690910201805460018201546002830154600384015460048501546005909501546001600160a01b0390941695509193909260ff808316926101008104821692620100009091049091169088565b6107c6838383610bc2565b5f80838060200190518101906107dc91906116ab565b5f878152600260205260408120548154939550919350909181908390811061080657610806611682565b5f918252602091829020600690910201600481018054600162ffff001990911661010060ff8a811691820262ff000019169290921762010000928a169283021760ff191692909217909255604080519182529381019190915290925083917f4e67a4b73c02f3c62bcfd888c4583bdab399c160a74a9afac45d2d842cd59ec2910160405180910390a250505050505050565b5f81116108e75760405162461bcd60e51b815260206004820152601960248201527f4475726174696f6e206d75737420626520706f736974697665000000000000006044820152606401610240565b6040805161010081019091523381525f906020810161090684426116f0565b81526020016109145f610b34565b81526020016109225f610b34565b81525f602080830182905260408084018390526060808501849052608094850184905283546001808201865585805287517f290decd9548b62a8d60345a988386fc84ba6bc95484008f6362f93160ef3e563600690930292830180547fffffffffffffffffffffffff0000000000000000000000000000000000000000166001600160a01b03909216919091179055938701517f290decd9548b62a8d60345a988386fc84ba6bc95484008f6362f93160ef3e564820155918601517f290decd9548b62a8d60345a988386fc84ba6bc95484008f6362f93160ef3e5658301558501517f290decd9548b62a8d60345a988386fc84ba6bc95484008f6362f93160ef3e566820155928401517f290decd9548b62a8d60345a988386fc84ba6bc95484008f6362f93160ef3e5678401805460a087015160c088015161ffff1990921693151561ff0019169390931761010060ff948516021762ff0000191662010000939091169290920291909117905560e08401517f290decd9548b62a8d60345a988386fc84ba6bc95484008f6362f93160ef3e56890930192909255549192503391610acd9190611703565b7f658891ce811ff307aab5be445fb05fffbcd9a125b10915b1aba719e376c537718360200151604051610b0291815260200190565b60405180910390a35050565b5f610b1a83835f610c2b565b9392505050565b5f610b1a83836002610d59565b92915050565b5f610b2e8260ff166002610e79565b5f82610b5557610b525f610b34565b92505b81610b6657610b635f610b34565b91505b610b1a83835f610f2e565b5f610b7d848484611029565b949350505050565b5f82610b9757610b945f610b34565b92505b81610ba857610ba55f610b34565b91505b610b1a83835f6110d2565b5f610bbe8230611187565b5090565b5f610bcc84611210565b90505f610bda8285856112e1565b905080610bfa5760405163cf6c44e960e01b815260040160405180910390fd5b60405185907f1af0453083661051f6e56e5c070792320652e612154bf9af8637bb1e7655b99d905f90a25050505050565b7f878245876662ba28a480c5ea71726db859fb50222b0a3d7cbbc21cfa336faf0080547f9e7b61f58c47dc699ac88507c4f5bb9f121c03808c5676a8078fe583e46497008054604051637d6e912360e11b81529293926001600160a01b039091169063fadd224690610ca1908990600401611750565b5f604051808303815f87803b158015610cb8575f80fd5b505af1158015610cca573d5f803e3d5ffd5b5050506002820154604051633263b83b60e01b81526001600160a01b039091169150633263b83b908690610d069087908b908b90600401611762565b5f604051808303818588803b158015610d1d575f80fd5b505af1158015610d2f573d5f803e3d5ffd5b5050505050610d3e83876113cd565b8154825f610d4b83611793565b919050555050509392505050565b7f9e7b61f58c47dc699ac88507c4f5bb9f121c03808c5676a8078fe583e46497015460405163196d0b9b60e01b81525f917f9e7b61f58c47dc699ac88507c4f5bb9f121c03808c5676a8078fe583e4649700916001600160a01b039091169063196d0b9b90610dd2908890339089908990600401611818565b6020604051808303815f875af1158015610dee573d5f803e3d5ffd5b505050506040513d601f19601f82011682018060405250810190610e12919061184e565b8154604051630f8e573b60e21b8152600481018390523360248201529193506001600160a01b031690633e395cec906044015f604051808303815f87803b158015610e5b575f80fd5b505af1158015610e6d573d5f803e3d5ffd5b50505050509392505050565b7f9e7b61f58c47dc699ac88507c4f5bb9f121c03808c5676a8078fe583e464970154604051639cd07acb60e01b81525f917f9e7b61f58c47dc699ac88507c4f5bb9f121c03808c5676a8078fe583e4649700916001600160a01b0390911690639cd07acb90610eee9087908790600401611865565b6020604051808303815f875af1158015610f0a573d5f803e3d5ffd5b505050506040513d601f19601f82011682018060405250810190610b7d919061184e565b5f808215610f415750600160f81b610f44565b505f5b7f9e7b61f58c47dc699ac88507c4f5bb9f121c03808c5676a8078fe583e46497015460405163f77f3f1d60e01b815260048101879052602481018690527fff00000000000000000000000000000000000000000000000000000000000000831660448201527f9e7b61f58c47dc699ac88507c4f5bb9f121c03808c5676a8078fe583e4649700916001600160a01b03169063f77f3f1d906064015b6020604051808303815f875af1158015610ffb573d5f803e3d5ffd5b505050506040513d601f19601f8201168201806040525081019061101f919061184e565b9695505050505050565b5f807f9e7b61f58c47dc699ac88507c4f5bb9f121c03808c5676a8078fe583e46497006001810154604051637702dcff60e01b81526004810188905260248101879052604481018690529192506001600160a01b031690637702dcff906064016020604051808303815f875af11580156110a5573d5f803e3d5ffd5b505050506040513d601f19601f820116820180604052508101906110c9919061184e565b95945050505050565b5f8082156110e55750600160f81b6110e8565b505f5b7f9e7b61f58c47dc699ac88507c4f5bb9f121c03808c5676a8078fe583e46497015460405163022f65e760e31b815260048101879052602481018690527fff00000000000000000000000000000000000000000000000000000000000000831660448201527f9e7b61f58c47dc699ac88507c4f5bb9f121c03808c5676a8078fe583e4649700916001600160a01b03169063117b2f3890606401610fdf565b5f7f9e7b61f58c47dc699ac88507c4f5bb9f121c03808c5676a8078fe583e46497008054604051635ca4b5b160e11b8152600481018690526001600160a01b03858116602483015292935091169063b9496b62906044015f604051808303815f87803b1580156111f5575f80fd5b505af1158015611207573d5f803e3d5ffd5b50505050505050565b5f8181527f878245876662ba28a480c5ea71726db859fb50222b0a3d7cbbc21cfa336faf0160205260408120546060917f878245876662ba28a480c5ea71726db859fb50222b0a3d7cbbc21cfa336faf009190036112815760405163d66ca67560e01b815260040160405180910390fd5b5f838152600182016020908152604091829020805483518184028101840190945280845290918301828280156112d457602002820191905f5260205f20905b8154815260200190600101908083116112c0575b5050505050915050919050565b5f80835160206112f191906116f0565b6112fc9060206116f0565b90505f8482604051602001611312929190611879565b60405160208183030381529060405290505f61134b7f9e7b61f58c47dc699ac88507c4f5bb9f121c03808c5676a8078fe583e464970090565b60038101546040516378542ead60e01b81529192506001600160a01b0316906378542ead90611382908a9086908a9060040161189a565b6020604051808303815f875af115801561139e573d5f803e3d5ffd5b505050506040513d601f19601f820116820180604052508101906113c291906118d2565b979650505050505050565b5f8281527f878245876662ba28a480c5ea71726db859fb50222b0a3d7cbbc21cfa336faf0160205260409020547f878245876662ba28a480c5ea71726db859fb50222b0a3d7cbbc21cfa336faf00901561143a57604051633f06d22b60e01b815260040160405180910390fd5b5f8381526001820160209081526040909120835161145a92850190611460565b50505050565b828054828255905f5260205f20908101928215611499579160200282015b8281111561149957825182559160200191906001019061147e565b50610bbe9291505b80821115610bbe575f81556001016114a1565b5f602082840312156114c4575f80fd5b5035919050565b5f80604083850312156114dc575f80fd5b8235915060208301356001600160a01b03811681146114f9575f80fd5b809150509250929050565b5f805f8060608587031215611517575f80fd5b8435935060208501359250604085013567ffffffffffffffff8082111561153c575f80fd5b818701915087601f83011261154f575f80fd5b81358181111561155d575f80fd5b88602082850101111561156e575f80fd5b95989497505060200194505050565b634e487b7160e01b5f52604160045260245ffd5b5f82601f8301126115a0575f80fd5b813567ffffffffffffffff808211156115bb576115bb61157d565b604051601f8301601f19908116603f011681019082821181831017156115e3576115e361157d565b816040528381528660208588010111156115fb575f80fd5b836020870160208301375f602085830101528094505050505092915050565b5f805f6060848603121561162c575f80fd5b83359250602084013567ffffffffffffffff8082111561164a575f80fd5b61165687838801611591565b9350604086013591508082111561166b575f80fd5b5061167886828701611591565b9150509250925092565b634e487b7160e01b5f52603260045260245ffd5b805160ff811681146116a6575f80fd5b919050565b5f80604083850312156116bc575f80fd5b6116c583611696565b91506116d360208401611696565b90509250929050565b634e487b7160e01b5f52601160045260245ffd5b80820180821115610b2e57610b2e6116dc565b81810381811115610b2e57610b2e6116dc565b5f815180845260208085019450602084015f5b8381101561174557815187529582019590820190600101611729565b509495945050505050565b602081525f610b1a6020830184611716565b838152606060208201525f61177a6060830185611716565b905063ffffffff60e01b83166040830152949350505050565b5f600182016117a4576117a46116dc565b5060010190565b5f5b838110156117c55781810151838201526020016117ad565b50505f910152565b5f81518084526117e48160208601602086016117ab565b601f01601f19169290920160200192915050565b6054811061181457634e487b7160e01b5f52602160045260245ffd5b9052565b8481526001600160a01b0384166020820152608060408201525f61183f60808301856117cd565b90506110c960608301846117f8565b5f6020828403121561185e575f80fd5b5051919050565b82815260408101610b1a60208301846117f8565b5f835161188a8184602088016117ab565b9190910191825250602001919050565b606081525f6118ac6060830186611716565b82810360208401526118be81866117cd565b9050828103604084015261101f81856117cd565b5f602082840312156118e2575f80fd5b81518015158114610b1a575f80fdfea164736f6c6343000818000a",
  "linkReferences": {},
  "deployedLinkReferences": {}
}